{
  "contractName": "OpenRentableToken",
  "abi": [
    {
      "constant": true,
      "inputs": [
        {
          "name": "_interfaceId",
          "type": "bytes4"
        }
      ],
      "name": "supportsInterface",
      "outputs": [
        {
          "name": "",
          "type": "bool"
        }
      ],
      "payable": false,
      "stateMutability": "view",
      "type": "function"
    },
    {
      "constant": true,
      "inputs": [],
      "name": "name",
      "outputs": [
        {
          "name": "",
          "type": "string"
        }
      ],
      "payable": false,
      "stateMutability": "view",
      "type": "function"
    },
    {
      "constant": true,
      "inputs": [
        {
          "name": "_tokenId",
          "type": "uint256"
        }
      ],
      "name": "getApproved",
      "outputs": [
        {
          "name": "",
          "type": "address"
        }
      ],
      "payable": false,
      "stateMutability": "view",
      "type": "function"
    },
    {
      "constant": false,
      "inputs": [
        {
          "name": "_to",
          "type": "address"
        },
        {
          "name": "_tokenId",
          "type": "uint256"
        }
      ],
      "name": "approve",
      "outputs": [],
      "payable": false,
      "stateMutability": "nonpayable",
      "type": "function"
    },
    {
      "constant": true,
      "inputs": [],
      "name": "totalSupply",
      "outputs": [
        {
          "name": "",
          "type": "uint256"
        }
      ],
      "payable": false,
      "stateMutability": "view",
      "type": "function"
    },
    {
      "constant": true,
      "inputs": [],
      "name": "InterfaceId_ERC165",
      "outputs": [
        {
          "name": "",
          "type": "bytes4"
        }
      ],
      "payable": false,
      "stateMutability": "view",
      "type": "function"
    },
    {
      "constant": false,
      "inputs": [
        {
          "name": "_from",
          "type": "address"
        },
        {
          "name": "_to",
          "type": "address"
        },
        {
          "name": "_tokenId",
          "type": "uint256"
        }
      ],
      "name": "transferFrom",
      "outputs": [],
      "payable": false,
      "stateMutability": "nonpayable",
      "type": "function"
    },
    {
      "constant": true,
      "inputs": [
        {
          "name": "_owner",
          "type": "address"
        },
        {
          "name": "_index",
          "type": "uint256"
        }
      ],
      "name": "tokenOfOwnerByIndex",
      "outputs": [
        {
          "name": "",
          "type": "uint256"
        }
      ],
      "payable": false,
      "stateMutability": "view",
      "type": "function"
    },
    {
      "constant": true,
      "inputs": [
        {
          "name": "",
          "type": "uint256"
        },
        {
          "name": "",
          "type": "uint256"
        }
      ],
      "name": "reservations",
      "outputs": [
        {
          "name": "",
          "type": "address"
        }
      ],
      "payable": false,
      "stateMutability": "view",
      "type": "function"
    },
    {
      "constant": true,
      "inputs": [],
      "name": "DEFAULT_MIN_RENT_TIME",
      "outputs": [
        {
          "name": "",
          "type": "uint256"
        }
      ],
      "payable": false,
      "stateMutability": "view",
      "type": "function"
    },
    {
      "constant": false,
      "inputs": [
        {
          "name": "_from",
          "type": "address"
        },
        {
          "name": "_to",
          "type": "address"
        },
        {
          "name": "_tokenId",
          "type": "uint256"
        }
      ],
      "name": "safeTransferFrom",
      "outputs": [],
      "payable": false,
      "stateMutability": "nonpayable",
      "type": "function"
    },
    {
      "constant": true,
      "inputs": [
        {
          "name": "_index",
          "type": "uint256"
        }
      ],
      "name": "tokenByIndex",
      "outputs": [
        {
          "name": "",
          "type": "uint256"
        }
      ],
      "payable": false,
      "stateMutability": "view",
      "type": "function"
    },
    {
      "constant": true,
      "inputs": [
        {
          "name": "_tokenId",
          "type": "uint256"
        }
      ],
      "name": "ownerOf",
      "outputs": [
        {
          "name": "",
          "type": "address"
        }
      ],
      "payable": false,
      "stateMutability": "view",
      "type": "function"
    },
    {
      "constant": true,
      "inputs": [
        {
          "name": "_owner",
          "type": "address"
        }
      ],
      "name": "balanceOf",
      "outputs": [
        {
          "name": "",
          "type": "uint256"
        }
      ],
      "payable": false,
      "stateMutability": "view",
      "type": "function"
    },
    {
      "constant": true,
      "inputs": [],
      "name": "symbol",
      "outputs": [
        {
          "name": "",
          "type": "string"
        }
      ],
      "payable": false,
      "stateMutability": "view",
      "type": "function"
    },
    {
      "constant": false,
      "inputs": [
        {
          "name": "_to",
          "type": "address"
        },
        {
          "name": "_approved",
          "type": "bool"
        }
      ],
      "name": "setApprovalForAll",
      "outputs": [],
      "payable": false,
      "stateMutability": "nonpayable",
      "type": "function"
    },
    {
      "constant": false,
      "inputs": [
        {
          "name": "_from",
          "type": "address"
        },
        {
          "name": "_to",
          "type": "address"
        },
        {
          "name": "_tokenId",
          "type": "uint256"
        },
        {
          "name": "_data",
          "type": "bytes"
        }
      ],
      "name": "safeTransferFrom",
      "outputs": [],
      "payable": false,
      "stateMutability": "nonpayable",
      "type": "function"
    },
    {
      "constant": true,
      "inputs": [
        {
          "name": "_tokenId",
          "type": "uint256"
        }
      ],
      "name": "tokenURI",
      "outputs": [
        {
          "name": "",
          "type": "string"
        }
      ],
      "payable": false,
      "stateMutability": "view",
      "type": "function"
    },
    {
      "constant": true,
      "inputs": [
        {
          "name": "_owner",
          "type": "address"
        },
        {
          "name": "_operator",
          "type": "address"
        }
      ],
      "name": "isApprovedForAll",
      "outputs": [
        {
          "name": "",
          "type": "bool"
        }
      ],
      "payable": false,
      "stateMutability": "view",
      "type": "function"
    },
    {
      "inputs": [
        {
          "name": "name",
          "type": "string"
        },
        {
          "name": "symbol",
          "type": "string"
        }
      ],
      "payable": false,
      "stateMutability": "nonpayable",
      "type": "constructor"
    },
    {
      "anonymous": false,
      "inputs": [
        {
          "indexed": true,
          "name": "_renter",
          "type": "address"
        },
        {
          "indexed": false,
          "name": "_tokenId",
          "type": "uint256"
        },
        {
          "indexed": false,
          "name": "_start",
          "type": "uint256"
        },
        {
          "indexed": false,
          "name": "_stop",
          "type": "uint256"
        }
      ],
      "name": "Reserve",
      "type": "event"
    },
    {
      "anonymous": false,
      "inputs": [
        {
          "indexed": true,
          "name": "_renter",
          "type": "address"
        },
        {
          "indexed": false,
          "name": "_tokenId",
          "type": "uint256"
        },
        {
          "indexed": false,
          "name": "_start",
          "type": "uint256"
        },
        {
          "indexed": false,
          "name": "_stop",
          "type": "uint256"
        }
      ],
      "name": "CancelReservation",
      "type": "event"
    },
    {
      "anonymous": false,
      "inputs": [
        {
          "indexed": true,
          "name": "_from",
          "type": "address"
        },
        {
          "indexed": true,
          "name": "_to",
          "type": "address"
        },
        {
          "indexed": true,
          "name": "_tokenId",
          "type": "uint256"
        }
      ],
      "name": "Transfer",
      "type": "event"
    },
    {
      "anonymous": false,
      "inputs": [
        {
          "indexed": true,
          "name": "_owner",
          "type": "address"
        },
        {
          "indexed": true,
          "name": "_approved",
          "type": "address"
        },
        {
          "indexed": true,
          "name": "_tokenId",
          "type": "uint256"
        }
      ],
      "name": "Approval",
      "type": "event"
    },
    {
      "anonymous": false,
      "inputs": [
        {
          "indexed": true,
          "name": "_owner",
          "type": "address"
        },
        {
          "indexed": true,
          "name": "_operator",
          "type": "address"
        },
        {
          "indexed": false,
          "name": "_approved",
          "type": "bool"
        }
      ],
      "name": "ApprovalForAll",
      "type": "event"
    },
    {
      "constant": false,
      "inputs": [
        {
          "name": "_to",
          "type": "address"
        },
        {
          "name": "_tokenId",
          "type": "uint256"
        }
      ],
      "name": "mint",
      "outputs": [],
      "payable": false,
      "stateMutability": "nonpayable",
      "type": "function"
    },
    {
      "constant": false,
      "inputs": [
        {
          "name": "_tokenId",
          "type": "uint256"
        }
      ],
      "name": "burn",
      "outputs": [],
      "payable": false,
      "stateMutability": "nonpayable",
      "type": "function"
    },
    {
      "constant": true,
      "inputs": [
        {
          "name": "_tokenId",
          "type": "uint256"
        }
      ],
      "name": "exists",
      "outputs": [
        {
          "name": "",
          "type": "bool"
        }
      ],
      "payable": false,
      "stateMutability": "view",
      "type": "function"
    },
    {
      "constant": false,
      "inputs": [
        {
          "name": "_tokenId",
          "type": "uint256"
        },
        {
          "name": "_uri",
          "type": "string"
        }
      ],
      "name": "setTokenURI",
      "outputs": [],
      "payable": false,
      "stateMutability": "nonpayable",
      "type": "function"
    },
    {
      "constant": false,
      "inputs": [
        {
          "name": "_from",
          "type": "address"
        },
        {
          "name": "_tokenId",
          "type": "uint256"
        }
      ],
      "name": "_removeTokenFrom",
      "outputs": [],
      "payable": false,
      "stateMutability": "nonpayable",
      "type": "function"
    },
    {
      "constant": true,
      "inputs": [
        {
          "name": "_tokenId",
          "type": "uint256"
        },
        {
          "name": "_time",
          "type": "uint256"
        }
      ],
      "name": "renterOf",
      "outputs": [
        {
          "name": "",
          "type": "address"
        }
      ],
      "payable": false,
      "stateMutability": "view",
      "type": "function"
    },
    {
      "constant": false,
      "inputs": [
        {
          "name": "_tokenId",
          "type": "uint256"
        },
        {
          "name": "_start",
          "type": "uint256"
        },
        {
          "name": "_stop",
          "type": "uint256"
        }
      ],
      "name": "reserve",
      "outputs": [
        {
          "name": "",
          "type": "bool"
        }
      ],
      "payable": false,
      "stateMutability": "nonpayable",
      "type": "function"
    },
    {
      "constant": true,
      "inputs": [
        {
          "name": "_tokenId",
          "type": "uint256"
        },
        {
          "name": "_start",
          "type": "uint256"
        },
        {
          "name": "_stop",
          "type": "uint256"
        }
      ],
      "name": "checkAvailable",
      "outputs": [
        {
          "name": "available",
          "type": "bool"
        }
      ],
      "payable": false,
      "stateMutability": "view",
      "type": "function"
    }
  ],
  "bytecode": "0x608060405262015180600c556001600e553480156200001d57600080fd5b50604051620028f4380380620028f4833981018060405281019080805182019291906020018051820192919050505081816200008b6301ffc9a77c010000000000000000000000000000000000000000000000000000000002620001bb640100000000026401000000009004565b620000c86380ac58cd7c010000000000000000000000000000000000000000000000000000000002620001bb640100000000026401000000009004565b62000105634f558e797c010000000000000000000000000000000000000000000000000000000002620001bb640100000000026401000000009004565b81600590805190602001906200011d92919062000279565b5080600690805190602001906200013692919062000279565b506200017463780e9d637c010000000000000000000000000000000000000000000000000000000002620001bb640100000000026401000000009004565b620001b1635b5e139f7c010000000000000000000000000000000000000000000000000000000002620001bb640100000000026401000000009004565b5050505062000328565b63ffffffff7c010000000000000000000000000000000000000000000000000000000002817bffffffffffffffffffffffffffffffffffffffffffffffffffffffff1916141515156200020d57600080fd5b6001600080837bffffffffffffffffffffffffffffffffffffffffffffffffffffffff19167bffffffffffffffffffffffffffffffffffffffffffffffffffffffff1916815260200190815260200160002060006101000a81548160ff02191690831515021790555050565b828054600181600116156101000203166002900490600052602060002090601f016020900481019282601f10620002bc57805160ff1916838001178555620002ed565b82800160010185558215620002ed579182015b82811115620002ec578251825591602001919060010190620002cf565b5b509050620002fc919062000300565b5090565b6200032591905b808211156200032157600081600090555060010162000307565b5090565b90565b6125bc80620003386000396000f30060806040526004361061015f576000357c0100000000000000000000000000000000000000000000000000000000900463ffffffff16806301ffc9a71461016457806306fdde03146101c8578063081812fc14610258578063095ea7b3146102c5578063162094c41461031257806318160ddd1461038557806319fa8f50146103b057806323b872dd146104195780632f745c591461048657806330662b7b146104e75780633a1ca8d41461055e57806340c10f191461058957806342842e0e146105d657806342966c68146106435780634f558e79146106705780634f6ccce7146106b55780635e8bdc85146106f65780636352211e1461074f57806370a08231146107bc5780639260587e1461081357806395d89b411461086057806399845ab6146108f0578063a22cb46514610949578063abd5ac7e14610998578063b88d4fde14610a0f578063c87b56dd14610ac2578063e985e9c514610b68575b600080fd5b34801561017057600080fd5b506101ae60048036038101908080357bffffffffffffffffffffffffffffffffffffffffffffffffffffffff19169060200190929190505050610be3565b604051808215151515815260200191505060405180910390f35b3480156101d457600080fd5b506101dd610c4a565b6040518080602001828103825283818151815260200191508051906020019080838360005b8381101561021d578082015181840152602081019050610202565b50505050905090810190601f16801561024a5780820380516001836020036101000a031916815260200191505b509250505060405180910390f35b34801561026457600080fd5b5061028360048036038101908080359060200190929190505050610cec565b604051808273ffffffffffffffffffffffffffffffffffffffff1673ffffffffffffffffffffffffffffffffffffffff16815260200191505060405180910390f35b3480156102d157600080fd5b50610310600480360381019080803573ffffffffffffffffffffffffffffffffffffffff16906020019092919080359060200190929190505050610d29565b005b34801561031e57600080fd5b5061038360048036038101908080359060200190929190803590602001908201803590602001908080601f0160208091040260200160405190810160405280939291908181526020018383808284378201915050505050509192919290505050610e6e565b005b34801561039157600080fd5b5061039a610e7c565b6040518082815260200191505060405180910390f35b3480156103bc57600080fd5b506103c5610e89565b60405180827bffffffffffffffffffffffffffffffffffffffffffffffffffffffff19167bffffffffffffffffffffffffffffffffffffffffffffffffffffffff1916815260200191505060405180910390f35b34801561042557600080fd5b50610484600480360381019080803573ffffffffffffffffffffffffffffffffffffffff169060200190929190803573ffffffffffffffffffffffffffffffffffffffff16906020019092919080359060200190929190505050610eb0565b005b34801561049257600080fd5b506104d1600480360381019080803573ffffffffffffffffffffffffffffffffffffffff16906020019092919080359060200190929190505050610fbb565b6040518082815260200191505060405180910390f35b3480156104f357600080fd5b5061051c6004803603810190808035906020019092919080359060200190929190505050611032565b604051808273ffffffffffffffffffffffffffffffffffffffff1673ffffffffffffffffffffffffffffffffffffffff16815260200191505060405180910390f35b34801561056a57600080fd5b50610573611074565b6040518082815260200191505060405180910390f35b34801561059557600080fd5b506105d4600480360381019080803573ffffffffffffffffffffffffffffffffffffffff1690602001909291908035906020019092919050505061107a565b005b3480156105e257600080fd5b50610641600480360381019080803573ffffffffffffffffffffffffffffffffffffffff169060200190929190803573ffffffffffffffffffffffffffffffffffffffff16906020019092919080359060200190929190505050611088565b005b34801561064f57600080fd5b5061066e600480360381019080803590602001909291905050506110a9565b005b34801561067c57600080fd5b5061069b600480360381019080803590602001909291905050506110be565b604051808215151515815260200191505060405180910390f35b3480156106c157600080fd5b506106e0600480360381019080803590602001909291905050506110d0565b6040518082815260200191505060405180910390f35b34801561070257600080fd5b50610735600480360381019080803590602001909291908035906020019092919080359060200190929190505050611108565b604051808215151515815260200191505060405180910390f35b34801561075b57600080fd5b5061077a6004803603810190808035906020019092919050505061114b565b604051808273ffffffffffffffffffffffffffffffffffffffff1673ffffffffffffffffffffffffffffffffffffffff16815260200191505060405180910390f35b3480156107c857600080fd5b506107fd600480360381019080803573ffffffffffffffffffffffffffffffffffffffff1690602001909291905050506111c9565b6040518082815260200191505060405180910390f35b34801561081f57600080fd5b5061085e600480360381019080803573ffffffffffffffffffffffffffffffffffffffff1690602001909291908035906020019092919050505061124d565b005b34801561086c57600080fd5b5061087561125b565b6040518080602001828103825283818151815260200191508051906020019080838360005b838110156108b557808201518184015260208101905061089a565b50505050905090810190601f1680156108e25780820380516001836020036101000a031916815260200191505b509250505060405180910390f35b3480156108fc57600080fd5b5061092f6004803603810190808035906020019092919080359060200190929190803590602001909291905050506112fd565b604051808215151515815260200191505060405180910390f35b34801561095557600080fd5b50610996600480360381019080803573ffffffffffffffffffffffffffffffffffffffff169060200190929190803515159060200190929190505050611453565b005b3480156109a457600080fd5b506109cd600480360381019080803590602001909291908035906020019092919050505061158f565b604051808273ffffffffffffffffffffffffffffffffffffffff1673ffffffffffffffffffffffffffffffffffffffff16815260200191505060405180910390f35b348015610a1b57600080fd5b50610ac0600480360381019080803573ffffffffffffffffffffffffffffffffffffffff169060200190929190803573ffffffffffffffffffffffffffffffffffffffff16906020019092919080359060200190929190803590602001908201803590602001908080601f01602080910402602001604051908101604052809392919081815260200183838082843782019150505050505091929192905050506115de565b005b348015610ace57600080fd5b50610aed60048036038101908080359060200190929190505050611606565b6040518080602001828103825283818151815260200191508051906020019080838360005b83811015610b2d578082015181840152602081019050610b12565b50505050905090810190601f168015610b5a5780820380516001836020036101000a031916815260200191505b509250505060405180910390f35b348015610b7457600080fd5b50610bc9600480360381019080803573ffffffffffffffffffffffffffffffffffffffff169060200190929190803573ffffffffffffffffffffffffffffffffffffffff1690602001909291905050506116cf565b604051808215151515815260200191505060405180910390f35b6000806000837bffffffffffffffffffffffffffffffffffffffffffffffffffffffff19167bffffffffffffffffffffffffffffffffffffffffffffffffffffffff1916815260200190815260200160002060009054906101000a900460ff169050919050565b606060058054600181600116156101000203166002900480601f016020809104026020016040519081016040528092919081815260200182805460018160011615610100020316600290048015610ce25780601f10610cb757610100808354040283529160200191610ce2565b820191906000526020600020905b815481529060010190602001808311610cc557829003601f168201915b5050505050905090565b60006002600083815260200190815260200160002060009054906101000a900473ffffffffffffffffffffffffffffffffffffffff169050919050565b6000610d348261114b565b90508073ffffffffffffffffffffffffffffffffffffffff168373ffffffffffffffffffffffffffffffffffffffff1614151515610d7157600080fd5b8073ffffffffffffffffffffffffffffffffffffffff163373ffffffffffffffffffffffffffffffffffffffff161480610db15750610db081336116cf565b5b1515610dbc57600080fd5b826002600084815260200190815260200160002060006101000a81548173ffffffffffffffffffffffffffffffffffffffff021916908373ffffffffffffffffffffffffffffffffffffffff160217905550818373ffffffffffffffffffffffffffffffffffffffff168273ffffffffffffffffffffffffffffffffffffffff167f8c5be1e5ebec7d5bd14f71427d1e84f3dd0314c0f7b2291e5b200ac8c7c3b92560405160405180910390a4505050565b610e788282611763565b5050565b6000600980549050905090565b6301ffc9a77c01000000000000000000000000000000000000000000000000000000000281565b610eba33826117a3565b1515610ec557600080fd5b600073ffffffffffffffffffffffffffffffffffffffff168373ffffffffffffffffffffffffffffffffffffffff1614151515610f0157600080fd5b600073ffffffffffffffffffffffffffffffffffffffff168273ffffffffffffffffffffffffffffffffffffffff1614151515610f3d57600080fd5b610f478382611838565b610f51838261193b565b610f5b8282611af7565b808273ffffffffffffffffffffffffffffffffffffffff168473ffffffffffffffffffffffffffffffffffffffff167fddf252ad1be2c89b69c2b068fc378daa952ba7f163c4a11628f55a4df523b3ef60405160405180910390a4505050565b6000610fc6836111c9565b82101515610fd357600080fd5b600760008473ffffffffffffffffffffffffffffffffffffffff1673ffffffffffffffffffffffffffffffffffffffff1681526020019081526020016000208281548110151561101f57fe5b9060005260206000200154905092915050565b600d6020528160005260406000206020528060005260406000206000915091509054906101000a900473ffffffffffffffffffffffffffffffffffffffff1681565b600c5481565b6110848282611bce565b5050565b6110a483838360206040519081016040528060008152506115de565b505050565b6110bb6110b58261114b565b82611c25565b50565b60006110c982611d5d565b9050919050565b60006110da610e7c565b821015156110e757600080fd5b6009828154811015156110f657fe5b90600052602060002001549050919050565b6000808390505b828111151561113e576111228582611dcf565b15156111315760009150611143565b808060010191505061110f565b600191505b509392505050565b6000806001600084815260200190815260200160002060009054906101000a900473ffffffffffffffffffffffffffffffffffffffff169050600073ffffffffffffffffffffffffffffffffffffffff168173ffffffffffffffffffffffffffffffffffffffff16141515156111c057600080fd5b80915050919050565b60008073ffffffffffffffffffffffffffffffffffffffff168273ffffffffffffffffffffffffffffffffffffffff161415151561120657600080fd5b600360008373ffffffffffffffffffffffffffffffffffffffff1673ffffffffffffffffffffffffffffffffffffffff168152602001908152602001600020549050919050565b611257828261193b565b5050565b606060068054600181600116156101000203166002900480601f0160208091040260200160405190810160405280929190818152602001828054600181600116156101000203166002900480156112f35780601f106112c8576101008083540402835291602001916112f3565b820191906000526020600020905b8154815290600101906020018083116112d657829003601f168201915b5050505050905090565b60008061130984611e4c565b151561131457600080fd5b828410151561132257600080fd5b61132d858585611108565b151561133857600080fd5b8390505b828111151561136b5761134f8582611dcf565b151561135e576000915061144b565b808060010191505061133c565b8390505b82811115156113e85733600d6000878152602001908152602001600020600083815260200190815260200160002060006101000a81548173ffffffffffffffffffffffffffffffffffffffff021916908373ffffffffffffffffffffffffffffffffffffffff160217905550808060010191505061136f565b3373ffffffffffffffffffffffffffffffffffffffff167fbefb16c2a93dbe0a03b9b2077a6ad523c9b6e03d372a3c1316352f7a3b41f94386868660405180848152602001838152602001828152602001935050505060405180910390a2600191505b509392505050565b3373ffffffffffffffffffffffffffffffffffffffff168273ffffffffffffffffffffffffffffffffffffffff161415151561148e57600080fd5b80600460003373ffffffffffffffffffffffffffffffffffffffff1673ffffffffffffffffffffffffffffffffffffffff16815260200190815260200160002060008473ffffffffffffffffffffffffffffffffffffffff1673ffffffffffffffffffffffffffffffffffffffff16815260200190815260200160002060006101000a81548160ff0219169083151502179055508173ffffffffffffffffffffffffffffffffffffffff163373ffffffffffffffffffffffffffffffffffffffff167f17307eab39ab6107e8899845ad3d59bd9653f200f220920489ca2b5937696c3183604051808215151515815260200191505060405180910390a35050565b6000600d6000848152602001908152602001600020600083815260200190815260200160002060009054906101000a900473ffffffffffffffffffffffffffffffffffffffff16905092915050565b6115e9848484610eb0565b6115f584848484611e6a565b151561160057600080fd5b50505050565b6060611611826110be565b151561161c57600080fd5b600b60008381526020019081526020016000208054600181600116156101000203166002900480601f0160208091040260200160405190810160405280929190818152602001828054600181600116156101000203166002900480156116c35780601f10611698576101008083540402835291602001916116c3565b820191906000526020600020905b8154815290600101906020018083116116a657829003601f168201915b50505050509050919050565b6000600460008473ffffffffffffffffffffffffffffffffffffffff1673ffffffffffffffffffffffffffffffffffffffff16815260200190815260200160002060008373ffffffffffffffffffffffffffffffffffffffff1673ffffffffffffffffffffffffffffffffffffffff16815260200190815260200160002060009054906101000a900460ff16905092915050565b61176c826110be565b151561177757600080fd5b80600b6000848152602001908152602001600020908051906020019061179e929190612477565b505050565b6000806117af8361114b565b90508073ffffffffffffffffffffffffffffffffffffffff168473ffffffffffffffffffffffffffffffffffffffff16148061181e57508373ffffffffffffffffffffffffffffffffffffffff1661180684610cec565b73ffffffffffffffffffffffffffffffffffffffff16145b8061182f575061182e81856116cf565b5b91505092915050565b8173ffffffffffffffffffffffffffffffffffffffff166118588261114b565b73ffffffffffffffffffffffffffffffffffffffff1614151561187a57600080fd5b600073ffffffffffffffffffffffffffffffffffffffff166002600083815260200190815260200160002060009054906101000a900473ffffffffffffffffffffffffffffffffffffffff1673ffffffffffffffffffffffffffffffffffffffff161415156119375760006002600083815260200190815260200160002060006101000a81548173ffffffffffffffffffffffffffffffffffffffff021916908373ffffffffffffffffffffffffffffffffffffffff1602179055505b5050565b600080600061194a858561208c565b600860008581526020019081526020016000205492506119b66001600760008873ffffffffffffffffffffffffffffffffffffffff1673ffffffffffffffffffffffffffffffffffffffff168152602001908152602001600020805490506121bb90919063ffffffff16565b9150600760008673ffffffffffffffffffffffffffffffffffffffff1673ffffffffffffffffffffffffffffffffffffffff16815260200190815260200160002082815481101515611a0457fe5b9060005260206000200154905080600760008773ffffffffffffffffffffffffffffffffffffffff1673ffffffffffffffffffffffffffffffffffffffff16815260200190815260200160002084815481101515611a5e57fe5b9060005260206000200181905550600760008673ffffffffffffffffffffffffffffffffffffffff1673ffffffffffffffffffffffffffffffffffffffff168152602001908152602001600020805480919060019003611abe91906124f7565b50600060086000868152602001908152602001600020819055508260086000838152602001908152602001600020819055505050505050565b6000611b0383836121d4565b600760008473ffffffffffffffffffffffffffffffffffffffff1673ffffffffffffffffffffffffffffffffffffffff168152602001908152602001600020805490509050600760008473ffffffffffffffffffffffffffffffffffffffff1673ffffffffffffffffffffffffffffffffffffffff168152602001908152602001600020829080600181540180825580915050906001820390600052602060002001600090919290919091505550806008600084815260200190815260200160002081905550505050565b611bd8828261232e565b600980549050600a60008381526020019081526020016000208190555060098190806001815401808255809150509060018203906000526020600020016000909192909190915055505050565b6000806000611c3485856123d4565b6000600b6000868152602001908152602001600020805460018160011615610100020316600290049050141515611c8557600b60008581526020019081526020016000206000611c849190612523565b5b600a6000858152602001908152602001600020549250611cb460016009805490506121bb90919063ffffffff16565b9150600982815481101515611cc557fe5b9060005260206000200154905080600984815481101515611ce257fe5b90600052602060002001819055506000600983815481101515611d0157fe5b90600052602060002001819055506009805480919060019003611d2491906124f7565b506000600a60008681526020019081526020016000208190555082600a6000838152602001908152602001600020819055505050505050565b6000806001600084815260200190815260200160002060009054906101000a900473ffffffffffffffffffffffffffffffffffffffff169050600073ffffffffffffffffffffffffffffffffffffffff168173ffffffffffffffffffffffffffffffffffffffff161415915050919050565b60008073ffffffffffffffffffffffffffffffffffffffff16600d6000858152602001908152602001600020600084815260200190815260200160002060009054906101000a900473ffffffffffffffffffffffffffffffffffffffff1673ffffffffffffffffffffffffffffffffffffffff1614905092915050565b600080600c5442811515611e5c57fe5b049050808311915050919050565b600080611e8c8573ffffffffffffffffffffffffffffffffffffffff16612448565b1515611e9b5760019150612083565b8473ffffffffffffffffffffffffffffffffffffffff1663150b7a02338887876040518563ffffffff167c0100000000000000000000000000000000000000000000000000000000028152600401808573ffffffffffffffffffffffffffffffffffffffff1673ffffffffffffffffffffffffffffffffffffffff1681526020018473ffffffffffffffffffffffffffffffffffffffff1673ffffffffffffffffffffffffffffffffffffffff16815260200183815260200180602001828103825283818151815260200191508051906020019080838360005b83811015611f90578082015181840152602081019050611f75565b50505050905090810190601f168015611fbd5780820380516001836020036101000a031916815260200191505b5095505050505050602060405180830381600087803b158015611fdf57600080fd5b505af1158015611ff3573d6000803e3d6000fd5b505050506040513d602081101561200957600080fd5b8101908080519060200190929190505050905063150b7a027c0100000000000000000000000000000000000000000000000000000000027bffffffffffffffffffffffffffffffffffffffffffffffffffffffff1916817bffffffffffffffffffffffffffffffffffffffffffffffffffffffff19161491505b50949350505050565b8173ffffffffffffffffffffffffffffffffffffffff166120ac8261114b565b73ffffffffffffffffffffffffffffffffffffffff161415156120ce57600080fd5b6121216001600360008573ffffffffffffffffffffffffffffffffffffffff1673ffffffffffffffffffffffffffffffffffffffff168152602001908152602001600020546121bb90919063ffffffff16565b600360008473ffffffffffffffffffffffffffffffffffffffff1673ffffffffffffffffffffffffffffffffffffffff1681526020019081526020016000208190555060006001600083815260200190815260200160002060006101000a81548173ffffffffffffffffffffffffffffffffffffffff021916908373ffffffffffffffffffffffffffffffffffffffff1602179055505050565b60008282111515156121c957fe5b818303905092915050565b600073ffffffffffffffffffffffffffffffffffffffff166001600083815260200190815260200160002060009054906101000a900473ffffffffffffffffffffffffffffffffffffffff1673ffffffffffffffffffffffffffffffffffffffff1614151561224257600080fd5b816001600083815260200190815260200160002060006101000a81548173ffffffffffffffffffffffffffffffffffffffff021916908373ffffffffffffffffffffffffffffffffffffffff1602179055506122e76001600360008573ffffffffffffffffffffffffffffffffffffffff1673ffffffffffffffffffffffffffffffffffffffff1681526020019081526020016000205461245b90919063ffffffff16565b600360008473ffffffffffffffffffffffffffffffffffffffff1673ffffffffffffffffffffffffffffffffffffffff168152602001908152602001600020819055505050565b600073ffffffffffffffffffffffffffffffffffffffff168273ffffffffffffffffffffffffffffffffffffffff161415151561236a57600080fd5b6123748282611af7565b808273ffffffffffffffffffffffffffffffffffffffff16600073ffffffffffffffffffffffffffffffffffffffff167fddf252ad1be2c89b69c2b068fc378daa952ba7f163c4a11628f55a4df523b3ef60405160405180910390a45050565b6123de8282611838565b6123e8828261193b565b80600073ffffffffffffffffffffffffffffffffffffffff168373ffffffffffffffffffffffffffffffffffffffff167fddf252ad1be2c89b69c2b068fc378daa952ba7f163c4a11628f55a4df523b3ef60405160405180910390a45050565b600080823b905060008111915050919050565b6000818301905082811015151561246e57fe5b80905092915050565b828054600181600116156101000203166002900490600052602060002090601f016020900481019282601f106124b857805160ff19168380011785556124e6565b828001600101855582156124e6579182015b828111156124e55782518255916020019190600101906124ca565b5b5090506124f3919061256b565b5090565b81548183558181111561251e5781836000526020600020918201910161251d919061256b565b5b505050565b50805460018160011615610100020316600290046000825580601f106125495750612568565b601f016020900490600052602060002090810190612567919061256b565b5b50565b61258d91905b80821115612589576000816000905550600101612571565b5090565b905600a165627a7a72305820f862eb111c02e329c39546b948fb8fb75b50ab2d536af042fc2d2e15221bfd830029",
  "source": "pragma solidity ^0.4.24;\n\nimport \"./ERC721Token.sol\";\n\n// @title PrepayTimeIntervalOpenRentable\ncontract OpenRentableToken is ERC721Token {\n\n  /**\n      STORAGE\n  */\n\n  // @dev default minimum unit of rent is one day (in seconds)\n  uint256 public DEFAULT_MIN_RENT_TIME = 3600*24;\n\n  // @dev mapping for basic reservations: tokenId => _time => renter\n  mapping (uint256 => mapping (uint256 => address)) public reservations;\n\n  // @dev the tokenId of the next token to be minted\n  uint256 nextTokenId = 1;\n\n  /**\n      EVENTS\n  */\n\n  /// @dev This emits when a successful reservation is made for accessing any NFT.\n  event Reserve(address indexed _renter, uint256 _tokenId, uint256 _start, uint256 _stop);\n\n  /// @dev This emits when a successful cancellation is made for a reservation.\n  event CancelReservation(address indexed _renter, uint256 _tokenId, uint256 _start, uint256 _stop);\n\n  /**\n      MODIFIERS\n  */\n\n  /**\n     ERC-721 FUNCTIONS\n  */\n\n  constructor(string name, string symbol) public\n    ERC721Token(name, symbol)\n  { }\n\n  function mint(address _to, uint256 _tokenId) public {\n    super._mint(_to, _tokenId);\n  }\n\n  function burn(uint256 _tokenId) public {\n    super._burn(ownerOf(_tokenId), _tokenId);\n  }\n\n  function exists(uint256 _tokenId) public view returns (bool) {\n    return super.exists(_tokenId);\n  }\n\n  function setTokenURI(uint256 _tokenId, string _uri) public {\n    super._setTokenURI(_tokenId, _uri);\n  }\n\n  function _removeTokenFrom(address _from, uint256 _tokenId) public {\n    super.removeTokenFrom(_from, _tokenId);\n  }\n\n\n  /**\n     ERC-809 FUNCTIONS\n  */\n\n  // function changeMinRental(uint256 _tokenId, uint256 _newMin) external {\n  //   Token storage token = tokens[_tokenId];\n  //   require(msg.sender == ownedTokensIndex[_tokenId]);\n  //   token.minRentTime = _newMin;\n  // }\n\n  /// @notice Find the renter of an NFT token as of `_time`\n  /// @dev The renter is who made a reservation on `_tokenId` and the reservation spans over `_time`.\n  function renterOf(uint256 _tokenId, uint256 _time) \n  public\n  view\n  returns (address)\n  {\n    return reservations[_tokenId][_time];\n  }\n\n  /// @notice Reserve access to token `_tokenId` from time `_start` to time `_stop`\n  /// @dev A successful reservation must ensure each time slot in the range _start to _stop\n  ///  is not previously reserved (by calling the function checkAvailable() described below)\n  ///  and then emit a Reserve event.\n  function reserve(uint256 _tokenId, uint256 _start, uint256 _stop)\n  external\n  returns (bool)\n  {\n    require(_isFuture(_start));\n    require(_start<_stop);\n    require(checkAvailable(_tokenId, _start, _stop));\n\n    // check availability (for all dates in range)\n    for (uint i = _start; i <= _stop; i ++) {\n      if (! _isAvailable(_tokenId, i)) {\n        return false;\n      }\n    }\n\n    // make reservation\n    for (i = _start; i <= _stop; i ++) {\n        reservations[_tokenId][i] = msg.sender;\n    }\n\n    emit Reserve(\n      msg.sender, \n      _tokenId,\n      _start,\n      _stop\n    );\n\n    return true;\n  }\n\n  /// @notice Revoke access to token `_tokenId` from `_renter` and settle payments\n  /// @dev This function should be callable by either the owner of _tokenId or _renter,\n  ///  however, the owner should only be able to call this function if now >= _stop to\n  ///  prevent premature settlement of funds.\n  // function settle(uint256 _tokenId, address _renter, uint256 _stop) external returns (bool success);\n\n  /// @notice Query if token `_tokenId` if available to reserve between `_start` and `_stop` time\n  function checkAvailable(uint256 _tokenId, uint256 _start, uint256 _stop)\n  public\n  view\n  returns (bool available)\n  {\n    for (uint i = _start; i <= _stop; i ++) {\n      if (! _isAvailable(_tokenId, i)) {\n        return false;\n      }\n    }\n    return true;\n  }\n\n  /// @notice Cancel reservation for `_tokenId` between `_start` and `_stop`\n  /// @dev All reservations between `_start` and `_stop` are cancelled. `_start` and `_stop` do not guarantee\n  //   to be the ends for any one of the reservations\n  // function cancelReservation(uint256 _tokenId, uint256 _start, uint256 _stop) external returns (bool success);\n\n  /**\n    INTERNAL FUNCTIONS\n  */\n\n  // @dev check availability\n  function _isAvailable(uint256 _tokenId, uint256 _time) internal view returns (bool) {\n    return reservations[_tokenId][_time] == address(0);\n  }\n\n  // @dev internal check if reservation date is _isFuture\n  function _isFuture(uint256 _time) internal view returns (bool future) {\n    uint256 _now = now/DEFAULT_MIN_RENT_TIME;\n\n    return _time>_now;\n  }\n\n  // @dev find renter of token at specific time\n  function _getRenter(uint256 _tokenId, uint256 _time)\n    internal\n    view\n    returns (address _renter)\n    {\n    _renter = reservations[_tokenId][_time];\n    }\n}",
  "sourcePath": "/Users/corbinpage/zdev/capeo-smart-contracts/contracts/OpenRentableToken.sol",
  "compiler": {
    "name": "solc",
    "version": "0.4.24+commit.e67f0147.Emscripten.clang"
  },
  "schemaVersion": "2.0.1",
  "updatedAt": "2018-08-20T22:22:13.173Z"
}